:020000040800F2
:1000000000C00020FD920008ED2F0008F12F00082D
:10001000F52F0008F92F0008FD2F00080000000050
:100020000000000000000000000000000130000897
:100030000530000800000000093000084D9300085A
:100040004D9300084D9300084D9300084D93000810
:100050004D9300084D9300084D9300084D93000800
:100060004D930008E12B0008C52C00084D930008B3
:100070004D9300084D9300084D9300084D930008E0
:100080004D9300084D9300084D9300084D930008D0
:100090004D9300084D9300084D9300084D930008C0
:1000A0004D9300084D9300084D9300084D930008B0
:1000B000A92D00084D9300084D9300084D930008AA
:1000C0004D9300084D9300084D9300084D93000890
:1000D0004D9300084D9300084D9300084D93000880
:1000E0004D9300084D9300084D9300084D93000870
:1000F0004D9300084D9300084D9300084D93000860
:100100004D9300084D9300084D9300084D9300084F
:10011000552900084D9300084D9300084D930008A1
:100120004D9300084D9300084D9300084D9300082F
:1001300000000000000000000000000000000000BF
:1001400000000000000000000000000000000000AF
:10015000000000000000000000000000000000009F
:10016000000000000000000000000000000000008F
:10017000000000000000000000000000000000007F
:10018000000000000000000000000000000000006F
:10019000000000000000000000000000000000005F
:1001A000000000000000000000000000000000004F
:1001B000000000000000000000000000000000003F
:1001C000000000000000000000000000000000002F
:1001D000000000000000000000000000000000001F
:0401E0005FF8E0F1F3
:1001E80010B5054C237833B9044810B10448AFF36F
:1001F80000800121217010BDD00500200000000002
:10020800C8B5000808B5064B1BB106480649AFF348
:1002180000800648016811B1054A02B1904708BD3F
:1002280000000000C8B50008D4050020D005002053
:100238000000000000B589B0039002910192029B72
:1002480006934FF000030793019B012B40DD019BB0
:10025800102B3DDC019B0A2B08D1039B0793079BBE
:10026800002B03DA039BC3F100030393039A019B5A
:1002780092FBF3F30593039B019A93FBF2F2019926
:1002880001FB02F29B1A04934BF28833C0F6000379
:10029800049A9B181A78029B1A70029B03F10103B7
:1002A8000293059B0393039B002BDFD1079B002B35
:1002B80007DA029B4FF02D021A70029B03F101032B
:1002C8000293029B03F1FF330698194600F008F8E1
:1002D800029B4FF000021A70069B184609B000BD39
:1002E80084B00190009113E0009B1B788DF80F30CB
:1002F800019B1A78009B1A70009B03F1FF3300934F
:10030800019B9DF80F201A70019B03F101030193D3
:10031800009A019B9A42E7D804B070470EB400B522
:1003280086B00190019B039308AB029303AB184678
:100338000799029A00F024F80590059B019AD318B2
:100348004FF000021A70059B184606B05DF804EBE2
:1003580003B0704782B001900091009B1B68019A1E
:10036800D2B21A7003F10102009B1A60009B5B680D
:1003780003F10102009B5A60019B184602B07047C6
:1003880000B58BB0039002910192039B4FF00002DD
:100398005A6071E09DF92730252B06D09DF927304A
:1003A80018460399FFF7D6FF66E0029B1B788DF885
:1003B8002730029B03F1010302939DF92730252B77
:1003C80003D09DF92730632B11D19DF92730632B7A
:1003D80006D1019B03F1040201921B688DF82730B6
:1003E8009DF9273018460399FFF7B4FF44E09DF9BB
:1003F8002730732B07D09DF92730642B03D09DF944
:100408002730782B38D19DF92730732B06D1019BE3
:1004180003F1040201921B6808931CE09DF9273040
:10042800642B02D14FF00A0301E04FF01003079349
:10043800019B03F1040201921A6804AB10461946A5
:10044800079AFFF7F7FE089005E09DF92730184650
:100458000399FFF77FFF089B1B788DF827309DF9DC
:100468002730002B0CBF00230123DBB2089A02F1CE
:1004780001020892002BE8D1029B1B788DF82730E7
:100488009DF92730002B0CBF00230123DBB2029A11
:1004980002F101020292002B7FF47CAF039B5B68A0
:1004A80018460BB000BD00BF00B587B04FF0080379
:1004B800ADF814304FF000038DF8173005AB4FF44A
:1004C8008050C4F20100194604F0B6FA4FF4004017
:1004D80004F04AFF4FF400704FF0010105F0C2F834
:1004E8004FF41050C4F2010003F086FB4FF00003F4
:1004F80000934FF000038DF804304FF000038DF89F
:1005080005304FF4602302934FF0000303934FF03C
:1005180001038DF810306B464FF41050C4F20100FF
:10052800194603F0A9FB4FF41050C4F201004FF034
:10053800010103F015FC4FF41050C4F2010003F060
:1005480067FC00BF4FF41050C4F2010003F06AFCCE
:100558000346002BF6D14FF41050C4F2010003F00B
:100568007BFC00BF4FF41050C4F2010003F07EFC86
:100578000346002BF6D107B000BD00BF00B583B01D
:1005880003468DF807309DF807304FF41050C4F239
:10059800010019464FF001024FF0030303F0ECFC91
:1005A8004FF41050C4F201004FF0010103F078FC41
:1005B80000BF4FF41050C4F201004FF0020103F0E5
:1005C800E5FF0346002BF4D04FF41050C4F20100AD
:1005D80003F0D8FD0346184603B000BD00B583B04C
:1005E8004FF000038DF807301AE09DF807301846E1
:1005F80000F080F803468DF806309DF807209DF836
:10060800061040F27013C2F2000399544FF005002F
:1006180003F0FCF99DF8073003F101038DF807306A
:100628009DF807300B2BE0D903B000BD00B583B0AF
:100638004FF44060C4F201004FF480514FF00102C2
:1006480004F042FB4FF000038DF8073017E09DF8E7
:10065800072040F27013C2F200039B5CDBB29DF8E6
:1006680007201046194600F01BF84FF0050003F06C
:10067800CDF99DF8073003F101038DF807309DF897
:1006880007300B2BE3D94FF44060C4F201004FF45C
:1006980080514FF0000204F017FB03B000BD00BF0B
:1006A80000B583B002460B468DF807208DF806305A
:1006B8004FF0050003F0AAF901F0DEFE4FF0AE009E
:1006C80001F0A0FF02F07EF89DF80730184601F00F
:1006D80099FF02F077F89DF80630184601F092FF6E
:1006E80002F070F801F0F8FE4FF0050003F08EF903
:1006F80003B000BD00B585B003468DF807304FF054
:10070800010003F083F901F0B7FE4FF0AE0001F0ED
:1007180079FF02F057F89DF80730184601F072FF8C
:1007280002F050F801F0D8FE4FF0010003F06EF926
:1007380001F0A2FE4FF0AF0001F064FF02F042F8B2
:1007480001F0C4FF03468DF80F3001F029FF01F0D6
:10075800C3FE4FF0010003F059F99DF80F30184619
:1007680005B000BD00000000D0B540F2F053C2F261
:1007780000031B6818464FF00001C4F27A4108F0E4
:10078800F3FB03461A4640F2EC53C2F200031B681F
:100798001046194608F0E0FA03461A4640F230635C
:1007A800C2F200031A6040F27013C2F200031B7811
:1007B8005BB2184608F084FB024640F23063C2F28E
:1007C80000031B681046194608F0CEFB034618467E
:1007D8004FF00001C4F2C82108F07AFC03461A461B
:1007E80040F29463C2F200031A6040F27013C2F23E
:1007F8000003DB785BB2184608F062FB0346184634
:100808004FF00001C4F2C82108F062FC03461C4600
:1008180040F23063C2F200031A6840F25063C2F239
:1008280000031B681046194608F094FA0346204650
:10083800194608F099FB03461A4640F23463C2F29F
:1008480000031A6040F23063C2F200031A6840F2F3
:100858005063C2F200031A6040F29463C2F20003CC
:100868001A6840F23463C2F200031B681046194646
:1008780008F072FA03461A4640F28863C2F200038F
:100888001A604FF43054C4F2010440F28863C2F293
:1008980000031B68184607F0D3FE02460B461046B5
:1008A800194608F051FD02460B46104619464FF00E
:1008B80000024FF00003C4F2140307F015FF0246CC
:1008C8000B4616461F4640F27013C2F200039B798E
:1008D8005BB2184607F0A2FE02460B463046394680
:1008E80007F002FF02460B46104619464FF0000279
:1008F8004FF48043C4F27F0307F044FD02460B46E1
:100908001046194608F0B2F903469BB2A3864FF485
:100918003054C4F2010440F28863C2F200031B6839
:10092800184607F08DFE02460B461046194648A3A6
:10093800D3E9002307F026FD02460B461046194668
:1009480008F002FD02460B46104619464FF0000219
:100958004FF00003C4F2140307F0C6FE02460B462C
:1009680016461F4640F27013C2F200039B795BB231
:10097800184607F053FE02460B463046394607F044
:10098800B3FE02460B46104619464FF000024FF4DC
:100998008043C4F27F0307F0F5FC02460B4610467D
:1009A800194608F063F903469BB223874FF4305485
:1009B800C4F2010440F28863C2F200031B681846BF
:1009C80007F03EFE02460B461046194622A3D3E91D
:1009D800002307F0D7FC02460B461046194608F0DC
:1009E800B3FC02460B46104619464FF000024FF082
:1009F8000003C4F2140307F077FE02460B461646BE
:100A08001F4640F27013C2F200039B795BB218468E
:100A180007F004FE02460B463046394607F064FEEE
:100A280002460B46104619464FF000024FF4804329
:100A3800C4F27F0307F0A6FC02460B46104619468F
:100A480008F014F903469BB2A387D0BDAFF300802A
:100A5800B81E85EB51B80040C3F5285C8FC2104022
:100A6800D0B540F2F853C2F200031B6818464FF0A5
:100A78000001C4F27A4108F077FA03461A4640F2B8
:100A8800F453C2F200031B681046194608F064F9D3
:100A980003461A4640F26863C2F200031A6040F245
:100AA8007013C2F200035B785BB2184608F008FACC
:100AB800024640F26863C2F200031B6810461946FA
:100AC80008F052FA034618464FF00001C4F2C82154
:100AD80008F0FEFA03461A4640F29C63C2F200038D
:100AE8001A6040F27013C2F200031B795BB2184619
:100AF80008F0E6F9034618464FF00001C4F2C82191
:100B080008F0E6FA03461C4640F26863C2F20003A6
:100B18001A6840F2B063C2F200031B681046194617
:100B280008F018F903462046194608F01DFA03464E
:100B38001A4640F2DC63C2F200031A6040F26863AE
:100B4800C2F200031A6840F2B063C2F200031A60EE
:100B580040F29C63C2F200031A6840F2DC63C2F2FE
:100B680000031B681046194608F0F6F803461A46B3
:100B780040F2AC63C2F200031A604FF45054C4F25E
:100B8800010440F2AC63C2F200031B68184607F088
:100B980057FD02460B461046194608F0D5FB02469B
:100BA8000B46104619464FF000024FF00003C4F2FE
:100BB800140307F099FD02460B4616461F4640F2FD
:100BC8007013C2F20003DB795BB2184607F026FD0A
:100BD80002460B463046394607F086FD02460B466C
:100BE800104619464FF000024FF48043C4F27F03C9
:100BF80007F0C8FB02460B461046194608F036F8BF
:100C080003469BB2A3864FF45054C4F2010440F249
:100C1800AC63C2F200031B68184607F011FD0246D8
:100C28000B461046194648A3D3E9002307F0AAFB50
:100C380002460B461046194608F086FB02460B464C
:100C4800104619464FF000024FF00003C4F2140397
:100C580007F04AFD02460B4616461F4640F270133F
:100C6800C2F20003DB795BB2184607F0D7FC0246F4
:100C78000B463046394607F037FD02460B4610460C
:100C880019464FF000024FF48043C4F27F0307F087
:100C980079FB02460B461046194607F0E7FF034664
:100CA8009BB223874FF45054C4F2010440F2AC6362
:100CB800C2F200031B68184607F0C2FC02460B4646
:100CC8001046194622A3D3E9002307F05BFB02462E
:100CD8000B461046194608F037FB02460B461046ED
:100CE80019464FF000024FF00003C4F2140307F056
:100CF800FBFC02460B4616461F4640F27013C2F232
:100D08000003DB795BB2184607F088FC02460B4605
:100D18003046394607F0E8FC02460B4610461946AD
:100D28004FF000024FF48043C4F27F0307F02AFB20
:100D380002460B461046194607F098FF03469BB239
:100D4800A387D0BDAFF30080B81E85EB51B8004033
:100D5800C3F5285C8FC2104038B540F20063C2F278
:100D680000031B6818464FF00001C4F27A4108F0EE
:100D7800FBF803461A4640F2FC53C2F200031B6814
:100D88001046194607F0E8FF03461A4640F260632A
:100D9800C2F200031A6040F27013C2F200039B789B
:100DA8005BB2184608F08CF8024640F26063C2F263
:100DB80000031B681046194608F0D6F80346184683
:100DC8004FF00001C4F2C82108F082F903461A4620
:100DD80040F29063C2F200031A6040F27013C2F24C
:100DE80000035B795BB2184608F06AF803461846B8
:100DF8004FF00001C4F2C82108F06AF903461C4606
:100E080040F26063C2F200031A6840F24863C2F21B
:100E180000031B681046194607F09CFF034620464E
:100E2800194608F0A1F803461A4640F2A063C2F238
:100E380000031A6040F26063C2F200031A6840F2CD
:100E48004863C2F200031A6040F29063C2F20003E2
:100E58001A6840F2A063C2F200031B6810461946E4
:100E680007F07AFF03461A4640F28C63C2F2000389
:100E78001A6040F28C63C2F200031B68184607F040
:100E8800DFFB02460B461046194608F05DFA02469B
:100E98000B46104619464FF000024FF00003C4F20B
:100EA800140307F021FC02460B4614461D4640F287
:100EB8007013C2F200031B7A5BB2184607F0AEFB50
:100EC80002460B462046294607F00EFC02460B4612
:100ED800104619464FF000024FF48043C4F27F03D6
:100EE80007F050FA02460B461046194607F096FEE0
:100EF800024640F21C63C2F200031A6040F28C639F
:100F0800C2F200031B68184607F09AFB02460B461C
:100F180010461946B0A3D3E9002307F033FA024676
:100F28000B461046194608F00FFA02460B461046C3
:100F380019464FF000024FF00003C4F2140307F003
:100F4800D3FB02460B4614461D4640F27013C2F20C
:100F580000031B7A5BB2184607F060FB02460B469B
:100F68002046294607F0C0FB02460B4610461946A4
:100F78004FF000024FF48043C4F27F0307F002FAF7
:100F880002460B461046194607F048FE024640F254
:100F98006463C2F200031A6040F28C63C2F2000379
:100FA8001B68184607F04CFB02460B4610461946CC
:100FB8008BA3D3E9002307F0E5F902460B46104658
:100FC800194608F0C1F902460B46104619464FF07B
:100FD80000024FF00003C4F2140307F085FB024639
:100FE8000B4614461D4640F27013C2F200031B7AEA
:100FF8005BB2184607F012FB02460B46204629460C
:1010080007F072FB02460B46104619464FF00002E5
:101018004FF48043C4F27F0307F0B4F902460B464D
:101028001046194607F0FAFD024640F22C63C2F258
:1010380000031A6040F21C63C2F200031A6840F20F
:10104800A1339A4206DD40F21C63C2F2000340F26B
:10105800A2321A6040F26463C2F200031A6840F2D6
:10106800A1339A4206DD40F26463C2F2000340F203
:10107800A2321A6040F22C63C2F200031A6840F2EE
:10108800A1339A4206DD40F22C63C2F2000340F21B
:10109800A2321A6040F21C63C2F200031B680A2BDA
:1010A80006DC40F21C63C2F200034FF00A021A6029
:1010B80040F26463C2F200031B680A2B06DC40F2AC
:1010C8006463C2F200034FF00A021A6040F22C6314
:1010D800C2F200031B680A2B06DC40F22C63C2F242
:1010E80000034FF00A021A604FF40063C4F20003D1
:1010F80040F21C62C2F20002126892B29A864FF461
:101108000063C4F2000340F26462C2F20002126893
:1011180092B21A874FF40063C4F2000340F22C62C3
:10112800C2F20002126892B29A8740F21C63C2F2BD
:1011380000031B6803F1460240F21C63C2F200037D
:101148001A6040F26463C2F200031B6803F14602AE
:1011580040F26463C2F200031A6040F22C63C2F2E8
:1011680000031B6803F1460240F22C63C2F200033D
:101178001A6040F21C63C2F200031A6840F2E733B7
:101188009A4206DD40F21C63C2F200034FF47A7201
:101198001A6040F26463C2F200031A6840F2E7334F
:1011A8009A4206DD40F26463C2F200034FF47A7299
:1011B8001A6040F22C63C2F200031A6840F2E73367
:1011C8009A4211DD40F22C63C2F200034FF47A72A6
:1011D8001A6009E0AFF30080B81E85EB51B80040F3
:1011E800C3F5285C8FC210404FF44063C4F200037B
:1011F80040F21C62C2F20002126892B29A864FF460
:101208004063C4F2000340F26462C2F20002126852
:1012180092B21A874FF44063C4F2000340F22C6282
:10122800C2F20002126892B29A8738BDF8B54FF43C
:101238004060C4F201004FF480514FF0010203F006
:1012480043FD4FF44060C4F201004FF020014FF01D
:10125800000203F039FD01E002F0D2FA40F2147303
:10126800C2F200031B68012BF6D000F02FFE40F2FB
:101278007013C2F20003DB7A5BB2184607F0CEF9AE
:1012880002460B46104619464FF000024FF0000385
:10129800C4F2490307F074F802460B461046194693
:1012A800B3A3D3E9002307F01FFA02460B461446FE
:1012B8001D4640F2C063C2F200031B68184607F0DF
:1012C800BFF906460F4640F23C63C2F200031B68B2
:1012D800184607F0B5F902460B463046394608F07D
:1012E8007FF802460B462046294607F049F8024691
:1012F8000B461046194607F0D9FC024640F25C63DB
:10130800C2F200031A6040F27063C2F200031B6865
:10131800184607F095F904460D4640F23C63C2F2C0
:1013280000031B68184607F08BF902460B46204657
:10133800294608F055F802460B461046194607F0AC
:10134800B5FC024640F2A863C2F200031A6000F03E
:10135800A7FE40F24463C2F200031B68184607F078
:101368006FF902460B461046194683A3D3E90023BA
:1013780007F0BAF902460B4614461D4640F25C6374
:10138800C2F200031B68184607F05AF902460B46DA
:101398002046294606F0F6FF02460B461046194637
:1013A8004FF000024FF00003C4F2590307F0C6FAE9
:1013B80002460B461046194607F078FC024640F2F2
:1013C8004463C2F200031A6040F29863C2F2000359
:1013D8001B68184607F034F902460B4610461946B2
:1013E80065A3D3E9002307F07FF902460B461446AC
:1013F8001D4640F2A863C2F200031B68184607F0B6
:101408001FF902460B462046294606F0BBFF024656
:101418000B46104619464FF000024FF00003C4F285
:10142800590307F08BFA02460B461046194607F097
:101438003DFC024640F29863C2F200031A6040F293
:101448002473C2F200031A6840F20003C2F20003D8
:1014580053F8222040F27463C2F200031A6040F28B
:101468002473C2F200031B68C3F15A0240F200035E
:10147800C2F2000353F8222040F28463C2F2000350
:101488001A6040F2CC63C2F200031B6883F000428A
:1014980040F27463C2F200031B681046194607F055
:1014A80063FD03461C4640F23863C2F200031A6823
:1014B80040F28463C2F200031B681046194607F025
:1014C80053FD03462046194607F046FC03461A46D4
:1014D80040F22463C2F200031A6040F22463C2F2AD
:1014E80000031A6840F26C13C2F200031B6810462E
:1014F800194607F039FD03461A4640F2F853C2F27E
:1015080000031B681046194607F026FC03461846D8
:1015180007F096F804460D4640F24463C2F2000311
:101528001A6840F2F853C2F200031B6810461946C5
:1015380007F010FC0346184607F082F802460B46EF
:10154800104619460EA3D3E9002307F0CDF802464A
:101558000B462046294606F015FF02460B46104664
:10156800194607F0A3FB024640F2F8530CE000BF0F
:1015780079E9263108AC6C3F0000000000C05840F3
:101588002D431CEBE2362A3FC2F200031A6040F2F8
:10159800CC63C2F200031A6840F26C13C2F2000373
:1015A8001B681046194607F0DFFC03461A4640F24E
:1015B8000063C2F200031B681046194607F0CCFB13
:1015C80003461A4640F20063C2F200031A6040F272
:1015D8006C63C2F200031A6840F26C13C2F2000393
:1015E8001B681046194607F0BFFC03461A4640F22E
:1015F8001863C2F200031B681046194607F0ACFBDB
:101608000346184607F01CF804460D4640F2986356
:10161800C2F200031A6840F21863C2F200031B68A2
:101628001046194607F096FB0346184607F008F8D7
:1016380002460B4610461946B1A3D3E9002307F02A
:1016480053F802460B462046294606F09BFE024602
:101658000B461046194607F029FB024640F218636C
:10166800C2F200031A6040F26C63C2F200031A6807
:1016780040F26C13C2F200031B681046194607F0CB
:1016880073FC03461A4640F28063C2F200031B68EB
:101698001046194607F060FB03461A4640F280637D
:1016A800C2F200031A6040F24063C2F200031B68F2
:1016B800184606F0C5FF02460B461046194692A387
:1016C800D3E9002307F010F802460B4614461D46DE
:1016D8004FF00100FEF752FF0346184606F09EFF42
:1016E80002460B46104619464FF000024FF480435D
:1016F800C4F2AF0307F022F902460B4620462946FA
:1017080006F040FE02460B46104619464FF000020E
:101718004FF00003C4F2590307F010F902460B46D4
:101728001046194607F0C2FA024640F24063C2F278
:1017380000031A6040F24063C2F200034FF0000257
:101748001A6040F20C63C2F200031B68184606F0E8
:1017580077FF02460B46104619466DA3D3E90023CE
:1017680006F0C2FF02460B4614461D4640F224739B
:10177800C2F200031B68184606F050FF02460B46EB
:101788002046294606F0FEFD02460B46104619463D
:101798004FF000024FF48043C4F27F0307F0CEF805
:1017A80002460B461046194607F080FA024640F2F8
:1017B8000C63C2F200031A6040F21863C2F200031D
:1017C8001B68184606F03CFF04460D4640F20C63C1
:1017D800C2F200031B68184606F032FF02460B46A9
:1017E800104619464CA3D3E9002307F0A7F8024690
:1017F8000B462046294606F0C3FD02460B46104616
:10180800194607F053FA024640F2F053C2F20003B9
:101818001A6040F2F053C2F200031B6818464FF0FA
:101828000001C4F2482107F09FFB03461A4640F224
:10183800D863C2F200031A6040F2D863C2F2000310
:101848001B6818464FF07E5107F04AFD0346002BEF
:1018580006D040F2D863C2F200034FF07E521A60FD
:1018680040F2D863C2F200031B6818464FF000012B
:10187800CBF6807107F016FD0346002B08D040F226
:10188800D863C2F200034FF00002CBF680721A60F0
:1018980040F2EC53C2F200031A6840F2D863C2F275
:1018A80000031B681046194607F056FA03461A4605
:1018B80040F2EC53C2F200031A6040F2F853C2F24D
:1018C80000031B6818464FF00001C4F2482107F0D6
:1018D8004BFB03461A4640F27863C2F200031A60D3
:1018E80040F27863C2F200031B6818464FF07E513D
:1018F80007F0F6FC0346002B19D011E0AFF3008087
:101908002D431CEBE2362A3F0000000000C058407F
:101918000000000000307F406666666666A64C40A0
:1019280040F27863C2F200034FF07E521A6040F230
:101938007863C2F200031B6818464FF00001CBF62B
:10194800807107F0AFFC0346002B08D040F27863A3
:10195800C2F200034FF00002CBF680721A6040F228
:10196800F453C2F200031A6840F27863C2F200032B
:101978001B681046194607F0EFF903461A4640F26D
:10198800F453C2F200031A6040F22063C2F200036B
:101998001B68184606F054FE02460B4610461946C8
:1019A8009FA3D3E9002306F09FFE02460B46144688
:1019B8001D464FF00D00FEF7E1FD0346A3F5FA635F
:1019C800184607F07DFA0346184606F039FE024627
:1019D8000B46104619464FF000024FF48043C4F2FC
:1019E800AF0306F0ABFF02460B462046294606F039
:1019F800C9FC02460B46104619464FF000024FF04C
:101A08000003C4F2590306F099FF02460B4610463C
:101A1800194607F04BF9024640F22063C2F2000370
:101A28001A6040F27013C2F200039B7A5BB2302B4B
:101A38004BD140F2CC63C2F200031A6840F26C1337
:101A4800C2F200031B681046194607F08DFA0346D8
:101A58001A4640F20063C2F200031B68104619469A
:101A680007F07AF90346184606F0EAFD04460D46E3
:101A780040F22063C2F200031A6840F20063C2F227
:101A880000031B681046194607F064F90346184618
:101A980006F0D6FD02460B461046194662A3D3E966
:101AA800002306F021FE02460B462046294606F092
:101AB80069FC02460B461046194607F0F7F802463D
:101AC80040F20063C2F200031A6040F27013C2F2DF
:101AD80000039B7A5BB2312B1FD140F2CC63C2F278
:101AE80000031A6840F26C13C2F200031B68104628
:101AF800194607F039FA03461A4640F20063C2F263
:101B080000031B681046194607F026F903461A46D3
:101B180040F20063C2F200031A6040F20063C2F2AE
:101B280000031B6818464FF00001C4F2482107F073
:101B38001BFA03461A4640F2C463C2F200031A6055
:101B480040F2C463C2F200031B6818464FF07E518E
:101B580007F0C6FB0346002B06D040F2C463C2F26E
:101B680000034FF07E521A6040F2C463C2F20003D1
:101B78001B6818464FF00001CBF6807107F092FB06
:101B88000346002B08D040F2C463C2F200034FF0B2
:101B98000002CBF680721A6040F2FC53C2F20003D6
:101BA8001A6840F2C463C2F200031B681046194663
:101BB80007F0D2F803461A4640F2FC53C2F200037B
:101BC8001A6040F20463C2F200031B68002B52D172
:101BD80001F01CFC01F0A6FC01F04AFD01F0ACFD8F
:101BE80040F20463C2F200034FF001021A604FF49E
:101BF8004060C4F200004FF0010104F053FC4FF4C0
:101C08004060C4F200004FF0010104F067FC40F2AC
:101C18002863C2F200034FF001021A6014E000BF0B
:101C28000000000000C058407B14AE47E17A843FB2
:101C380040F22863C2F200031B6803F1010240F27C
:101C48002863C2F200031A6040F22863C2F200035C
:101C58001B68032BECDD4FF40060C4F200004FF06A
:101C6800010104F01FFC4FF40060C4F200004FF0C3
:101C7800010104F033FCFEF777FDFEF7F1FEFFF7F4
:101C88006BF840F2D463C2F200031B8803F101032E
:101C98009AB240F2D463C2F200031A8040F2D463CD
:101CA800C2F200031B881BB2312B06DD40F2D4635D
:101CB800C2F200034FF000021A8040F20863C2F239
:101CC80000034FF000021A604FF44060C4F20100B4
:101CD8004FF480514FF0000202F0F6FF40F23C73DF
:101CE800C2F200034FF000021A60F8BDAFF30080A3
:101CF80000B583B04FF0010001F088FE00F0BCFB96
:101D08004FF0D00000F07EFC00F05CFD4FF0750055
:101D180000F078FC00F056FD00F0DEFB4FF001000B
:101D280001F074FE00F0A8FB4FF0D10000F06AFC4F
:101D380000F048FD00F0CAFC03468DF8073000F0BB
:101D48002FFC00F0C9FB01E001F02EF99DF80730E7
:101D5800682BF9D14FF0050001F058FE00F08CFB1C
:101D68004FF0D00000F04EFC00F02CFD4FF01900B1
:101D780000F048FC00F026FD4FF0000000F042FCA7
:101D880000F020FD00F0A8FB4FF0050001F03EFE3A
:101D980000F072FB4FF0D00000F034FC00F012FDB0
:101DA8004FF01A0000F02EFC00F00CFD4FF002007E
:101DB80000F028FC00F006FD00F08EFB4FF0050057
:101DC80001F024FE00F058FB4FF0D00000F01AFCA0
:101DD80000F0F8FC4FF01B0000F014FC00F0F2FCDF
:101DE8004FF0080000F00EFC00F0ECFC00F074FB73
:101DF8004FF0050001F00AFE00F03EFB4FF0D00066
:101E080000F000FC00F0DEFC4FF0370000F0FAFBB9
:101E180000F0D8FC4FF0000000F0F4FB00F0D2FC1A
:101E280000F05AFB4FF0050001F0F0FD00F024FB34
:101E38004FF0D00000F0E6FB00F0C4FC4FF0380093
:101E480000F0E0FB00F0BEFC4FF0000000F0DAFB11
:101E580000F0B8FC00F040FB4FF0050001F0D6FDA3
:101E680000F00AFB4FF0D00000F0CCFB00F0AAFC19
:101E78004FF06B0000F0C6FB00F0A4FC4FF0000030
:101E880000F0C0FB00F09EFC00F026FB4FF00500C0
:101E980001F0BCFD00F0F0FA4FF0D00000F0B2FB0A
:101EA80000F090FC4FF06A0000F0ACFB00F08AFCF8
:101EB8004FF0090000F0A6FB00F084FC00F00CFBDA
:101EC8004FF0050001F0A2FD03B000BD08B540F2D7
:101ED8003473C2F200034FF000021A6000F0CCFA2B
:101EE8004FF0D00000F08EFB00F06CFC40F2347331
:101EF800C2F200031B68002B61D14FF03B0000F0D9
:101F080081FB00F05FFC40F23473C2F200031B68EF
:101F1800002B54D100F0E0FA00F0AEFA4FF0D100F7
:101F280000F070FB00F04EFC40F23473C2F2000384
:101F38001B68002B43D100F0C9FB03461A4640F248
:101F4800E863C2F200031A7000F0F8FA00F0BEFB72
:101F580003461A4640F2E863C2F200035A7000F0E2
:101F6800EDFA00F0B3FB03461A4640F2E863C2F20A
:101F780000039A7000F0E2FA00F0A8FB03461A4644
:101F880040F2E863C2F20003DA7000F0D7FA00F01A
:101F98009DFB03461A4640F2E863C2F200031A7139
:101FA80000F0CCFA00F092FB03461A4640F2E863D0
:101FB800C2F200035A7100F0F3FA00F08DFA40F211
:101FC8003473C2F200031B68002B68D140F2E86347
:101FD800C2F200031B784FEA03239AB240F2E86387
:101FE800C2F200035B7813439AB240F2F463C2F280
:101FF80000031A8040F2F463C2F200031B881BB28C
:10200800184606F05DFF024640F2C063C2F20003C4
:102018001A6040F2E863C2F200039B784FEA032398
:102028009AB240F2E863C2F20003DB7813439AB233
:1020380040F23873C2F200031A8040F23873C2F2D9
:1020480000031B881BB2184606F03AFF024640F20E
:102058007063C2F200031A6040F2E863C2F2000340
:102068001B794FEA03239AB240F2E863C2F20003F5
:102078005B7913439AB240F23073C2F200031A80BC
:1020880040F23073C2F200031B881BB2184606F0F8
:1020980017FF024640F23C63C2F200031A6008BD13
:1020A80008B540F23473C2F200034FF000021A6020
:1020B80000F0E2F94FF0D00000F0A4FA00F0CAF9FD
:1020C80000F080FB00F0C6F940F23473C2F200035E
:1020D8001B68002B6DD14FF0430000F093FA00F01D
:1020E800B9F900F06FFB40F23473C2F200031B68C9
:1020F800002B5ED100F0F0F900F0BEF94FF0D100EE
:1021080000F080FA00F05EFB00F0A4F940F23473AE
:10211800C2F200031B68002B4BD100F0D7FA03462C
:102128001A4640F2E063C2F200031A7000F006FAA1
:1021380000F090F900F0CAFA03461A4640F2E0634C
:10214800C2F200035A7000F0F9F900F083F900F0C8
:10215800BDFA03461A4640F2E063C2F200039A70E1
:1021680000F0ECF900F076F900F0B0FA03461A46F0
:1021780040F2E063C2F20003DA7000F0DFF900F029
:1021880069F900F0A3FA03461A4640F2E063C2F286
:1021980000031A7100F0D2F900F05CF900F096FA29
:1021A80003461A4640F2E063C2F200035A7100F097
:1021B800F7F900F091F940F23473C2F200031B689A
:1021C800002B40F0A28040F2E063C2F200031B78CB
:1021D8004FEA03239AB240F2E063C2F200035B784D
:1021E80013439AB240F2F663C2F200031A8040F237
:1021F800F663C2F200031B881BB2184606F060FEA5
:10220800024640F27C63C2F200031B68104619467E
:1022180006F0A0FD034618464FF00001C4F2FA513B
:1022280006F056FF03461A4640F26C63C2F20003FA
:102238001A6040F2E063C2F200039B784FEA03237E
:102248009AB240F2E063C2F20003DB7813439AB219
:1022580040F21C73C2F200031A8040F21C73C2F2EF
:1022680000031B881BB2184606F02AFE024640F2FD
:102278001463C2F200031B681046194606F06AFD93
:10228800034618464FF00001C4F2FA5106F020FF49
:1022980003461A4640F23863C2F200031A6040F25D
:1022A800E063C2F200031B794FEA03239AB240F2BB
:1022B800E063C2F200035B7913439AB240F22873D9
:1022C800C2F200031A8040F22873C2F200031B888E
:1022D8001BB2184606F0F4FD024640F24C63C2F207
:1022E80000031B681046194606F034FD03461846DD
:1022F8004FF00001C4F2FA5106F0EAFE03461A460E
:1023080040F2CC63C2F200031A6008BD00B583B086
:102318004FF000038DF8073059E0FFF7C1FE40F297
:10232800F663C2F200031B881BB2184606F0C8FD0C
:10233800024640F27C63C2F200031B68104619464D
:1023480006F00AFD03461A4640F27C63C2F2000317
:102358001A6040F21C73C2F200031B881BB21846B5
:1023680006F0AEFD024640F21463C2F200031B6899
:102378001046194606F0F0FC03461A4640F214636C
:10238800C2F200031A6040F22873C2F200031B88ED
:102398001BB2184606F094FD024640F24C63C2F2A6
:1023A80000031B681046194606F0D6FC03461A4679
:1023B80040F24C63C2F200031A604FF0020001F0D1
:1023C80025FB9DF8073003F101038DF807309DF8D0
:1023D8000730632BA1D940F27C63C2F200031B686B
:1023E80018464FF00001C4F2C82106F071FE0346FA
:1023F8001A4640F27C63C2F200031A6040F214638A
:10240800C2F200031B6818464FF00001C4F2C8214D
:1024180006F05EFE03461A4640F21463C2F2000359
:102428001A6040F24C63C2F200031B6818464FF072
:102438000001C4F2C82106F04BFE03461A4640F2DA
:102448004C63C2F200031A604FF0050001F0DEFA97
:1024580003B000BD82B04FF00A038DF8073005E0E5
:102468009DF8073003F1FF338DF807309DF90730E9
:10247800002BF5DC02B0704708B54FF44060C4F299
:1024880001004FF400614FF0010202F01DFC4FF40F
:102498004060C4F201004FF480614FF0010202F085
:1024A80013FCFFF7D7FF4FF44060C4F201004FF46C
:1024B80000614FF0000202F007FCFFF7CBFF4FF47A
:1024C8004060C4F201004FF480614FF0000202F056
:1024D800FBFBFFF7BFFF08BD08B54FF44060C4F22F
:1024E80001004FF480614FF0000202F0EDFBFFF7AE
:1024F800B1FF4FF44060C4F201004FF400614FF0A7
:10250800000202F0E1FBFFF7A5FF4FF44060C4F2C0
:1025180001004FF480614FF0010202F0D5FBFFF794
:1025280099FF4FF44060C4F201004FF400614FF08E
:10253800010202F0C9FBFFF78DFF08BD08B54FF493
:102548004060C4F201004FF480614FF0000202F0D5
:10255800BBFBFFF77FFF4FF44060C4F201004FF46C
:1025680000614FF0000202F0AFFBFFF773FF4FF47A
:102578004060C4F201004FF480614FF0010202F0A4
:10258800A3FBFFF767FF4FF44060C4F201004FF46C
:1025980080614FF0000202F097FBFFF75BFF08BD78
:1025A80008B54FF44060C4F201004FF480614FF069
:1025B800000202F089FBFFF74DFF4FF44060C4F2C0
:1025C80001004FF400614FF0010202F07DFBFFF7BC
:1025D80041FF4FF44060C4F201004FF480614FF0B6
:1025E800010202F071FBFFF735FF4FF44060C4F2BF
:1025F80001004FF480614FF0000202F065FBFFF725
:1026080029FF08BD00B585B003468DF807304FF0A7
:1026180008038DF80F303DE04FF44060C4F201002C
:102628004FF480614FF0000202F04EFBFFF712FFFB
:102638009DF807305BB2002B09DA4FF44060C4F212
:1026480001004FF400614FF0010202F03DFB9DF8DC
:1026580007305BB2002B09DB4FF44060C4F2010085
:102668004FF400614FF0000202F02EFB9DF8073096
:102678004FEA43038DF80730FFF7ECFE4FF4406054
:10268800C4F201004FF480614FF0010202F01CFB1C
:10269800FFF7E0FE9DF80F30002B0CBF002301234D
:1026A800DBB29DF80F2002F1FF328DF80F20002BCE
:1026B800B2D14FF44060C4F201004FF480614FF092
:1026C800000202F001FB05B000BD00BF00B583B0F9
:1026D8004FF008038DF807304FF000038DF80630EF
:1026E8004FF44060C4F201004FF400614FF0010262
:1026F80002F0EAFA47E09DF806304FEA43038DF806
:1027080006304FF44060C4F201004FF480614FF08E
:10271800000202F0D9FAFFF79DFE4FF44060C4F2C0
:1027280001004FF480614FF0010202F0CDFA4FF042
:1027380000038DF804304FF000038DF8053014E0E5
:102748004FF44060C4F201004FF4006102F058FAFF
:1027580003461A469DF80430D3188DF804309DF8C6
:10276800053003F101038DF805309DF80530072B7E
:10277800E6D99DF80430032B05D99DF8063043F0BF
:1027880001038DF806309DF80730002B0CBF00239D
:102798000123DBB29DF8072002F1FF328DF80720F4
:1027A800002BA8D14FF44060C4F201004FF48061BF
:1027B8004FF0000202F088FA9DF80630184603B080
:1027C80000BD00BF08B54FF44060C4F201004FF4EB
:1027D80080614FF0000202F077FAFFF73BFE4FF4FA
:1027E8004060C4F201004FF400614FF0010202F0B2
:1027F8006BFAFFF72FFE4FF44060C4F201004FF46C
:1028080080614FF0010202F05FFAFFF723FE4FF4F8
:102818004060C4F201004FF4006102F0F1F9034690
:10282800012B1CD140F23473C2F200034FF00102B5
:102838001A604FF44060C4F201004FF020014FF0DD
:10284800010202F041FA40F2F063C2F200031B6891
:1028580003F1010240F2F063C2F200031A604FF480
:102868004060C4F201004FF480614FF0000202F0B2
:102878002BFA08BD82B003468DF807304FF4614348
:10288800CEF200039DF907204FEA52129DF8071077
:1028980001F01F014FF0010000FA01F143F8221086
:1028A80002B0704708B500F03BF800F0B1FA4FF4F9
:1028B8004060C4F201004FF480514FF0010202F071
:1028C80003FA4FF00A0001F0A1F84FF44060C4F297
:1028D80001004FF480514FF0000202F0F5F94FF07B
:1028E800320001F093F800F0FDFFFDF7DDFDFFF782
:1028F800FFF900F0A3FE00F065FD00F0FFF800F01E
:1029080015F9FDF76BFEFFF701FDFEF78FFC00BF21
:1029180040F20863C2F200031B68002BF8D0F4E70A
:1029280008B542F67D204FF0010102F09BFE4FF002
:102938000F00C0F208004FF0010102F0B9FE4FF09D
:1029480001004FF0010102F067FE08BD00B583B039
:1029580040F21473C2F200034FF001021A6000BF84
:102968004FF49840C4F200004FF0200105F04EFCEF
:102978000346002BF4D04FF49840C4F2000005F051
:1029880031FB03461A4640F22C73C2F200031A6068
:102998004FF44060C4F201004FF480514FF001023F
:1029A80002F092F940F22C73C2F200031B68672B05
:1029B8003DD14FF0640001F029F840F20070C2F2F6
:1029C80000004BF29C31C0F60001FDF7A7FC40F275
:1029D8000070C2F2000001F005F84FF00003019307
:1029E80022E0019BDBB21846FDF784FE03468DF812
:1029F80003304FF0010001F009F89DF8033040F270
:102A08000070C2F200004BF2A031C0F600011A4675
:102A1800FDF784FC40F20070C2F2000000F0E2FF13
:102A2800019B03F101030193019B0B2BD9DD40F2BC
:102A38004873C2F200031B68012B32D140F20C73B9
:102A4800C2F200031A6840F22C73C2F200031B683A
:102A5800D9B240F27013C2F20003995440F20C73D9
:102A6800C2F200031B6803F1010240F20C73C2F2C8
:102A780000031A6040F20C73C2F200031B680B2BB0
:102A88000FDD40F20C73C2F200034FF000021A602F
:102A980040F24873C2F200034FF000021A60FDF7DB
:102AA800C5FD40F22C73C2F200031B68682B06D1E7
:102AB80040F24873C2F200034FF001021A6040F27C
:102AC8002C73C2F200031B68692B06D140F2147301
:102AD800C2F200034FF001021A6040F22C73C2F2F6
:102AE80000031B686A2B06D140F21473C2F200037C
:102AF8004FF000021A6003B000BD00BF00B583B0FC
:102B08004FF4E06000F0A0FF4FF034038DF804307C
:102B18004FF000038DF806304FF001038DF80730B1
:102B280001AB184600F09EFF03B000BD00B583B0AE
:102B38004FF01803ADF804304FF028038DF8073034
:102B48004FF003038DF8063001AB4FF44060C4F238
:102B58000100194601F070FF4FF001004FF003012A
:102B680002F0C8F94FF001004FF0040102F0C2F979
:102B780040F24073C2F200034FF018021A6040F2AC
:102B88004073C2F200034FF000021A7140F2407322
:102B9800C2F200034FF010025A7140F24073C2F2C1
:102BA80000034FF001029A7140F24070C2F2000037
:102BB80001F08AFD4FF0180001F032FE4FF01800C6
:102BC80001F092FE4FF00900FFF754FE4FF00A00A3
:102BD800FFF750FE03B000BD08B54FF48063C4F2A0
:102BE80001035B6903F00803002B65D04FF4806391
:102BF800C4F201034FF48062C4F20102526942F048
:102C080008025A614FF44060C4F201004FF0080115
:102C180001F0F6FF0346012B0BD14FF48063C4F299
:102C280000039B8C9BB21A4640F24C73C2F200031D
:102C38001A604FF44060C4F201004FF0080101F03F
:102C4800DFFF0346002B0BD14FF48063C4F200036F
:102C58009B8C9BB21A4640F2F863C2F200031A60DA
:102C680040F2F863C2F200031A6840F24C73C2F2F1
:102C780000031B68D31A642B1EDD40F2F863C2F20E
:102C880000031A6840F24C73C2F200031B68D31A9F
:102C9800C72B11DC40F2F863C2F200031A6840F255
:102CA8004C73C2F200031B68D31AA3F1640240F20A
:102CB8001873C2F200031A6008BD00BF08B54FF4CC
:102CC8008063C4F201035B6903F01003002B65D035
:102CD8004FF48063C4F201034FF48062C4F201022E
:102CE800526942F010025A614FF44060C4F2010088
:102CF8004FF0100101F084FF0346012B0BD14FF474
:102D08008063C4F200039B8C9BB21A4640F2207386
:102D1800C2F200031A604FF44060C4F201004FF0A1
:102D2800100101F06DFF0346002B0BD14FF48063B7
:102D3800C4F200039B8C9BB21A4640F2FC63C2F2B9
:102D480000031A6040F2FC63C2F200031A6840F202
:102D58002073C2F200031B68D31A642B1EDD40F2F5
:102D6800FC63C2F200031A6840F22073C2F2000347
:102D78001B68D31AC72B11DC40F2FC63C2F20003B4
:102D88001A6840F22073C2F200031B68D31AA3F139
:102D9800640240F22473C2F200031A6008BD00BF47
:102DA80008B54FF080431B8A9BB203F00103002B48
:102DB8002CD04FF080434FF08042128A92B222F01A
:102DC800010292B21A8240F20863C2F200034FF085
:102DD80001021A6040F21473C2F200031B68002B50
:102DE8000BD140F23C73C2F200031B6803F10102ED
:102DF80040F23C73C2F200031A6040F23C73C2F224
:102E080000031B68FA2B01DD00F0FAFC08BD00BFC7
:102E180000B583B04FF4E063ADF804304FF0180309
:102E28008DF807304FF002038DF8063001AB4FF4F0
:102E38000060C4F20100194601F0FEFD4FF4604342
:102E4800ADF804304FF018038DF807304FF0020347
:102E58008DF8063001AB4FF44060C4F2010019460A
:102E680001F0EAFD4FF4E073ADF804304FF01803B9
:102E78008DF807304FF002038DF8063001AB4FF4A0
:102E88008050C4F20100194601F0D6FD4FF08003CE
:102E9800ADF804304FF018038DF807304FF00203F7
:102EA8008DF8063001AB4FF40060C4F201001946FA
:102EB80001F0C2FD4FF00303ADF804304FF01803E2
:102EC8008DF807304FF002038DF8063001AB4FF450
:102ED8004060C4F20100194601F0AEFD4FF007034F
:102EE800ADF804304FF018038DF807304FF00203A7
:102EF8008DF8063001AB4FF40060C4F201001946AA
:102F080001F09AFD4FF4E073ADF804304FF0180368
:102F18008DF807304FF002038DF8063001AB4FF4FF
:102F28004060C4F20100194601F086FD4FF4805359
:102F3800ADF804304FF010038DF807304FF003035D
:102F48008DF8063001AB4FF44060C4F20100194619
:102F580001F072FD4FF02003ADF804304FF010037C
:102F68008DF807304FF003038DF8063001AB4FF4AE
:102F78004060C4F20100194601F05EFD4FF4406361
:102F8800ADF804304FF014038DF807304FF0030309
:102F98008DF8063001AB4FF44060C4F201001946C9
:102FA80001F04AFD03B000BD08B54FF44060C4F21B
:102FB80001004FF480514FF0010201F085FE4FF0FF
:102FC800C80000F023FD4FF44060C4F201004FF444
:102FD80080514FF0000201F077FE4FF0C80000F07A
:102FE80015FD08BD704700BFFEE700BFFEE700BF44
:102FF800FEE700BFFEE700BF704700BF704700BF95
:10300800704700BF08B54FF48053C4F202034FF471
:103018008052C4F20202126842F001021A604FF4B0
:103028008052C4F202024FF48053C4F2020359687A
:103038004FF00003CFF6FF030B4053604FF480536B
:10304800C4F202034FF48052C4F20202126822F062
:10305800847222F480321A604FF48053C4F202035F
:103068004FF48052C4F20202126822F480221A60DD
:103078004FF48053C4F202034FF48052C4F20202A8
:10308800526822F4FE025A604FF48053C4F20203DD
:103098004FF41F029A6000F0A9F84FF46D43CEF286
:1030A80000034FF000629A6008BD00BF84B04FF083
:1030B800000303934FF0000302934FF000030193C2
:1030C8004FF48053C4F202035B6803F00C030393CC
:1030D800039B042B0DD0082B15D0002B5CD140F29C
:1030E8007C13C2F200034FF49052C0F27A021A60C5
:1030F8005CE040F27C13C2F200034FF49052C0F23D
:103108007A021A6052E04FF48053C4F202035B68FB
:1031180003F4701302934FF48053C4F202035B6804
:1031280003F480330193029B4FEA934303F10203B4
:103138000293019B002B0CD1029A4FF41063C0F24A
:103148003D0303FB02F240F27C13C2F200031A6053
:103158002CE04FF48053C4F202035B6803F400339D
:10316800002B0CD0029A4FF41063C0F23D0303FB0E
:1031780002F240F27C13C2F200031A6016E0029ACF
:103188004FF49053C0F27A0303FB02F240F27C132F
:10319800C2F200031A6009E040F27C13C2F2000395
:1031A8004FF49052C0F27A021A6000BF4FF4805375
:1031B800C4F202035B6803F0F0034FEA131240F213
:1031C8008013C2F200039B5CDBB2039340F27C13D2
:1031D800C2F200031A68039B22FA03F240F27C133E
:1031E800C2F200031A6004B0704700BF08B500F0CF
:1031F80001F808BD82B04FF0000301934FF00003BF
:1032080000934FF48053C4F202034FF48052C4F287
:103218000202126842F480321A604FF48053C4F2FA
:1032280002031B6803F400330093019B03F10103BD
:103238000193009B002B03D1019BB3F5A06FECD148
:103248004FF48053C4F202031B6803F40033002BCD
:1032580003D04FF00103009302E04FF00003009306
:10326800009B012B40F094804FF40053C4F20203FA
:103278004FF40052C4F20202126842F010021A60BF
:103288004FF40053C4F202034FF40052C4F2020296
:10329800126822F003021A604FF40053C4F20203CA
:1032A8004FF40052C4F20202126842F002021A609D
:1032B8004FF48053C4F202034FF48052C4F2020266
:1032C80052685A604FF48053C4F202034FF480529C
:1032D800C4F2020252685A604FF48053C4F20203E7
:1032E8004FF48052C4F20202526842F480625A607B
:1032F8004FF48053C4F202034FF48052C4F2020226
:10330800526822F47C125A604FF48053C4F20203CC
:103318004FF48052C4F20202526842F4E8125A6032
:103328004FF48053C4F202034FF48052C4F20202F5
:10333800126842F080721A6000BF4FF48053C4F2E2
:1033480002031B6803F00073002BF6D04FF4805380
:10335800C4F202034FF48052C4F20202526822F00F
:1033680003025A604FF48053C4F202034FF48052B0
:10337800C4F20202526842F002025A6000BF4FF4DF
:103388008053C4F202035B6803F00C03082BF6D1E8
:1033980002B0704782B003468DF807304FF461439E
:1033A800CEF200039DF907204FEA52129DF807104C
:1033B80001F01F014FF0010000FA01F143F822105B
:1033C80002B0704700B585B040F2CF23ADF80430A5
:1033D8004FF00003ADF806304EF66023ADF8083024
:1033E8004FF00003ADF80A3001AB4FF48060C4F22F
:1033F8000000194602F0D4FB4FF48060C4F20000CC
:103408004FF0010103F04EF805B000BD00B58DB0D6
:103418004FF00903ADF824304FF00003ADF8263023
:103428004FF0EF03ADF828304FF00003ADF82A3025
:103438004FF000038DF82C3009AB4FF43050C4F234
:103448000100194602F0ACFB4FF06003ADF81430F0
:103458004FF00103ADF816304FF00403ADF8183003
:103468004FF00003ADF81A304FF00003ADF81C30F0
:103478004FF00003ADF81E304FF48073ADF82030E4
:103488004FF00003ADF8223005AB4FF43050C4F2D2
:103498000100194602F018FC05AB4FF43050C4F295
:1034A8000100194602F0C4FC05AB4FF43050C4F2D9
:1034B8000100194602F070FD4FF40063ADF80430C6
:1034C8004FF48063ADF806304FF48073ADF80830E0
:1034D8004FF0C803ADF80A304FF00003ADF80C30D8
:1034E8004FF40053ADF80E304FF48043ADF8103070
:1034F80001AB4FF43050C4F20100194602F03CFF12
:103508004FF43050C4F201004FF0010102F0CAFF3D
:103518004FF43050C4F201004FF0010102F0DEFF19
:103528000DB000BD00B58DB04FF00903ADF82430E3
:103538004FF00003ADF826304FF0EF03ADF8283018
:103548004FF00003ADF82A304FF000038DF82C300F
:1035580009AB4FF45050C4F20100194602F020FBA9
:103568004FF06003ADF814304FF00103ADF816309A
:103578004FF00403ADF818304FF00003ADF81A30DF
:103588004FF00003ADF81C304FF00003ADF81E30CB
:103598004FF48073ADF820304FF00003ADF82230BF
:1035A80005AB4FF45050C4F20100194602F08CFBF1
:1035B80005AB4FF45050C4F20100194602F038FC34
:1035C80005AB4FF45050C4F20100194602F0E4FC78
:1035D8004FF40063ADF804304FF48063ADF8063063
:1035E8004FF48073ADF808304FF0C803ADF80A30D7
:1035F8004FF00003ADF80C304FF40053ADF80E3027
:103608004FF48043ADF8103001AB4FF45050C4F282
:103618000100194602F0B0FE4FF45050C4F2010008
:103628004FF0010102F03EFF4FF45050C4F2010088
:103638004FF0010102F052FF0DB000BD08B54FF088
:1036480080434FF047021A854FF080434FF4FA62E7
:103658009A854FF080434FF001029A814FF08043E2
:103668004FF001021A804FF01C00FFF793FE08BDCF
:1036780000B589B04FF00903ADF814304FF00003DE
:10368800ADF816304FF0EF03ADF818304FF4007373
:10369800ADF81A3005AB4FF44060C4F2000019468B
:1036A80002F07EFA4FF06003ADF804304FF00103EA
:1036B800ADF806304FF00003ADF80A304FF00203C2
:1036C800ADF80C3001AB4FF44060C4F2000019466D
:1036D80002F062FC4FF06003ADF804304FF00103D4
:1036E800ADF806304FF00003ADF80A304FF0020392
:1036F800ADF80C3001AB4FF44060C4F2000019463D
:1037080002F096FB4FF06003ADF804304FF0010370
:10371800ADF806304FF00003ADF80A304FF0020361
:10372800ADF80C3001AB4FF44060C4F2000019460C
:1037380002F0CAFA09B000BD00B589B04FF009031C
:10374800ADF814304FF00003ADF816304FF0EF032A
:10375800ADF818304FF40073ADF81A3005AB4FF4DC
:103768000060C4F20000194602F01AFA4FF0600334
:10377800ADF804304FF00103ADF806304FF0000308
:10378800ADF80A304FF00003ADF80C3001AB4FF440
:103798000060C4F20000194602F0FEFB4FF060031F
:1037A800ADF804304FF00103ADF806304FF00003D8
:1037B800ADF80A304FF00003ADF80C3001AB4FF410
:1037C8000060C4F20000194602F032FB4FF06003BB
:1037D800ADF804304FF00103ADF806304FF00003A8
:1037E800ADF80A304FF00003ADF80C3001AB4FF4E0
:1037F8000060C4F20000194602F066FA09B000BD84
:1038080008B54FF44060C4F201004FF480514FF006
:10381800010201F059FA4FF0640000F0F7F84FF494
:103828004060C4F201004FF480514FF0000201F0F3
:103838004BFA4FF0640000F0E9F84FF40063C4F26B
:1038480000034FF000029A864FF40063C4F20003AD
:103858004FF000021A874FF40063C4F200034FF0E0
:1038680000029A874FF44063C4F200034FF47A725F
:103878009A864FF44063C4F200034FF47A721A87B1
:103888004FF44063C4F200034FF47A729A874FF4FE
:103898003053C4F201034FF000029A864FF43053BC
:1038A800C4F201034FF000021A874FF43053C4F2F8
:1038B80001034FF000029A874FF45053C4F20103FA
:1038C8004FF000029A864FF45053C4F201034FF0B0
:1038D80000021A874FF45053C4F201034FF000025C
:1038E8009A8708BD00B589B04FF48063ADF81C30E5
:1038F8004FF018038DF81F304FF003038DF81E307A
:1039080007AB4FF48050C4F20100194601F094F857
:103918004FF40063ADF81C304FF028038DF81F30CA
:1039280007AB4FF48050C4F20100194601F084F847
:1039380001AB184604F01EFA01AB4FF49840C4F2EC
:103948000000194604F0F0F94FF4165303934FF0B2
:103958000003ADF810304FF00003ADF812304FF00F
:103968000003ADF814304FF00C03ADF816304FF0EB
:103978000003ADF8183003AB4FF49840C4F20000D0
:10398800194604F0E3F84FF49840C4F2000040F2FE
:1039980025514FF0010204F01DFA4FF49840C4F28B
:1039A80000004FF0010104F0F9F909B000BD00BFB3
:1039B80082B003468DF8073000BF4FF49843C4F235
:1039C80000031B889BB203F08003002BF5D04FF453
:1039D8009843C4F200039DF8072092B29A8002B07F
:1039E800704700BF00B583B0019008E0019B1B78C9
:1039F8001846FFF7DDFF019B03F101030193019BCB
:103A08001B78002BF2D103B000BD00BF00B589B010
:103A1800019002AB184601F01BFD039A41F259735D
:103A2800CDF2B713A3FB02134FEA5333019A02FBFB
:103A380003F3079303E0079B03F1FF330793079B07
:103A4800002BF8D109B000BD82B001904FF46D434E
:103A5800CEF20003019A42F0BF6242F40032DA600B
:103A680002B0704786B001904FF0000305934FF005
:103A7800000304934FF00F030393019BDB78002BA3
:103A880047D04FF46D43CEF20003DB686FEA0303BF
:103A980003F4E0634FEA13230593059BC3F1040382
:103AA8000493059B039A22FA03F30393019B5B7823
:103AB8001A46049B02FA03F30593019B9B781A4666
:103AC800039B1340059A13430593059B4FEA031381
:103AD80005934FF46143CEF20003019A1278114620
:103AE800059AD2B25B1883F800234FF46143CEF2F3
:103AF8000003019A12784FEA5212D2B2019909785A
:103B080001F01F014FF0010000FA01F143F8221003
:103B180014E04FF46143CEF20003019A12784FEAA1
:103B28005212D2B20199097801F01F014FF0010039
:103B380000FA01F102F1200243F8221006B07047A2
:103B480082B0019000914FF46D43CEF20003009AC9
:103B580022F0604222F07F0201990A439A6002B083
:103B6800704700BF82B002460B468DF807208DF8DB
:103B780006309DF80630002B0DD04FF46D43CEF281
:103B880000034FF46D42CEF2000211699DF8072040
:103B98000A431A610EE04FF46D43CEF200034FF46E
:103BA8006D42CEF2000211699DF807206FEA020209
:103BB8000A401A6102B0704782B00190019B042B41
:103BC8000CD14EF21003CEF200034EF21002CEF2E8
:103BD8000002126842F004021A600BE04EF2100371
:103BE800CEF200034EF21002CEF20002126822F06A
:103BF80004021A6002B0704700B583B00190019AC0
:103C08004FF41053C4F201039A420CD14FF40070E0
:103C18004FF0010101F072FD4FF400704FF0000108
:103C280001F06CFD26E0019A4FF42053C4F2010321
:103C38009A420CD14FF480604FF0010101F05EFD13
:103C48004FF480604FF0000101F058FD12E0019A36
:103C58004FF47053C4F201039A420BD14FF4004061
:103C68004FF0010101F04AFD4FF400404FF0000110
:103C780001F044FD03B000BD84B0019000914FF005
:103C8800000303934FF000038DF80B30019B5B6832
:103C98000393039B23F4702323F480730393009B03
:103CA8001A68009B1B794FEA03231343039A1343B3
:103CB8000393019B039A5A60019B9B680393039AA1
:103CC8004FF2FD73CFF6F17313400393009BDA684C
:103CD800009B9B681A43009B5B794FEA430313439D
:103CE800039A13430393019B039A9A60019BDB6A2F
:103CF8000393039B23F470030393009B1B7C03F142
:103D0800FF33DAB29DF80B3013438DF80B309DF872
:103D18000B304FEA0353039A13430393019B039A0F
:103D2800DA6204B0704700BF82B00190019B4FF087
:103D380000021A60019B4FF000021A71019B4FF0BC
:103D480000025A71019B4FF000029A60019B4FF0EC
:103D58000002DA60019B4FF001021A7402B070474A
:103D680082B001900B468DF803309DF80330002B8C
:103D780006D0019B9B6843F00102019B9A6005E015
:103D8800019B9B6823F00102019B9A6002B0704777
:103D980082B001900B468DF803309DF80330002B5C
:103DA80006D0019B9B6843F48072019B9A6005E0F2
:103DB800019B9B6823F48072019B9A6002B0704754
:103DC80084B0019013460A46ADF802208DF8013000
:103DD8004FF000038DF80F30BDF802308DF80F302A
:103DE8009DF80130002B07D0019B5A689DF80F30D1
:103DF8001A43019B5A6008E0019B5A689DF80F30EE
:103E08006FEA03031A40019B5A6004B0704700BF71
:103E180082B00190019B9B6843F00802019B9A6065
:103E280002B0704784B001904FF000038DF80F3056
:103E3800019B9B6803F00803002B04D04FF001039B
:103E48008DF80F3003E04FF000038DF80F309DF828
:103E58000F30184604B0704782B00190019B9B68F0
:103E680043F00402019B9A6002B0704784B001904D
:103E78004FF000038DF80F30019B9B6803F004039B
:103E8800002B04D04FF001038DF80F3003E04FF002
:103E980000038DF80F309DF80F30184604B07047B6
:103EA80082B001900B468DF803309DF80330002B4B
:103EB80006D0019B9B6843F4A002019B9A6005E031
:103EC800019B9B6823F4A002019B9A6002B0704793
:103ED80084B001904FF000038DF80F30019B9B6870
:103EE80003F48003002B04D04FF001038DF80F304A
:103EF80003E04FF000038DF80F309DF80F3018469F
:103F080004B0704784B001900B468DF803304FF031
:103F1800000303934FF000030293019B5B68039334
:103F2800039B23F4604303939DF8033003F1FF33AD
:103F38000293029B4FEA4333039A13430393019B73
:103F4800039A5A6004B0704782B001900B468DF80E
:103F580003309DF80330002B06D0019B5B6843F4C7
:103F68000062019B5A6005E0019B5B6823F40062D4
:103F7800019B5A6002B0704784B001908DF803101D
:103F88008DF802208DF801304FF0000303934FF0B5
:103F9800000302939DF80330092B2AD9019BDB68A3
:103FA80003939DF8032013464FEA43039B18A3F19C
:103FB8001E034FF0070202FA03F30293029B6FEA13
:103FC8000303039A134003939DF801109DF80320FF
:103FD80013464FEA43039B18A3F11E0301FA03F3A8
:103FE8000293039A029B13430393019B039ADA609B
:103FF80025E0019B1B6903939DF8032013464FEAB4
:1040080043039B184FF0070202FA03F30293029B43
:104018006FEA0303039A134003939DF801109DF878
:10402800032013464FEA43039B1801FA03F3029354
:10403800039A029B13430393019B039A1A619DF809
:104048000230062B2AD8019B5B6B03939DF8023044
:1040580003F1FF3213464FEA83039B184FF01F0208
:1040680002FA03F30293029B6FEA0303039A1340D5
:1040780003939DF803109DF8023003F1FF321346B5
:104088004FEA83039B1801FA03F30293039A029BF6
:1040980013430393019B039A5A6358E09DF8023037
:1040A8000C2B2AD8019B1B6B03939DF80220134607
:1040B8004FEA83039B18A3F123034FF01F0202FA70
:1040C80003F30293029B6FEA0303039A13400393DB
:1040D8009DF803109DF8022013464FEA83039B18AE
:1040E800A3F1230301FA03F30293039A029B1343F8
:1040F8000393019B039A1A6329E0019BDB6A0393EC
:104108009DF8022013464FEA83039B18A3F141034D
:104118004FF01F0202FA03F30293029B6FEA0303B4
:10412800039A134003939DF803109DF80220134649
:104138004FEA83039B18A3F1410301FA03F30293A7
:10414800039A029B13430393019B039ADA6204B018
:10415800704700BF82B001900B468DF803309DF880
:104168000330002B06D0019B9B6843F48012019B0F
:104178009A6005E0019B9B6823F48012019B9A607A
:1041880002B0704782B00190019BDB6C9BB218466D
:1041980002B0704742F24C43C4F201031B68184650
:1041A800704700BF82B001900B468DF803309DF830
:1041B8000330002B06D0019B5B6843F48062019BAF
:1041C8005A6005E0019B5B6823F48062019B5A609A
:1041D80002B0704782B001900B468DF803309DF80D
:1041E8000330002B06D0019B5B6843F48052019B8F
:1041F8005A6005E0019B5B6823F48052019B5A607A
:1042080002B0704784B0019000914FF0000303930F
:10421800019B9B680393039B23F4E0430393039A56
:10422800009B13430393019B039A9A6004B0704761
:1042380082B001900B468DF803309DF80330002BB7
:1042480006D0019B9B6843F40042019B9A6005E0FD
:10425800019B9B6823F40042019B9A6002B070475F
:1042680082B001900B468DF803309DF80330002B87
:1042780006D0019B9B6843F40212019B9A6005E0FB
:10428800019B9B6823F40212019B9A6002B070475D
:1042980084B001904FF000038DF80F30019B9B68AC
:1042A80003F40013002B04D04FF001038DF80F30F6
:1042B80003E04FF000038DF80F309DF80F301846DB
:1042C80004B0704786B001908DF803108DF8022075
:1042D8008DF801304FF0000305934FF0000304936D
:1042E8004FF0000303939DF80330092B2AD9019B53
:1042F800DB6805939DF8032013464FEA43039B1898
:10430800A3F11E034FF0070202FA03F30493049B80
:104318006FEA0303059A134005939DF801109DF871
:10432800032013464FEA43039B18A3F11E0301FA27
:1043380003F30493059A049B13430593019B059A81
:10434800DA6025E0019B1B6905939DF8032013465D
:104358004FEA43039B184FF0070202FA03F3049352
:10436800049B6FEA0303059A134005939DF8011017
:104378009DF8032013464FEA43039B1801FA03F301
:104388000493059A049B13430593019B059A1A61AC
:10439800019B9B6B0593059B03F440134FEA135352
:1043A8000393039BDBB26FEA0303DAB29DF8023092
:1043B800D318DBB203F10303DBB21A4613464FEA04
:1043C80083039B184FF01F0202FA03F30493049B24
:1043D8006FEA0303059A134005939DF80310039BA6
:1043E800DBB26FEA0303DAB29DF80230D318DBB20E
:1043F80003F10303DBB21A4613464FEA83039B1803
:1044080001FA03F30493059A049B13430593019B54
:10441800059A9A6306B0704784B001900B468DF8F0
:1044280003304FF0000303934FF000030293019B06
:104438009B6B0393039B23F4401303939DF8033072
:1044480003F1FF330293029B4FEA0353039A13438A
:104458000393019B039A9A6304B0704784B0019058
:1044680013460A468DF80320ADF800304FF00003DC
:104478000393019B03939DF80320039BD318039395
:10448800039BBDF800201A6004B0704784B0019007
:104498000B468DF803304FF000030393019B039301
:1044A8009DF80320039BD31803F128030393039B70
:1044B8001B689BB2184604B0704700BF84B00190D7
:1044C80000914FF000030393019B5B680393039BE8
:1044D80023F4400323F400730393039A009B1343CC
:1044E8000393019B039A5A6004B0704782B001900D
:1044F80013460A46ADF80220ADF80030BDF8022098
:10450800019B5A62BDF80020019B9A6202B0704775
:1045180084B001900B468DF803304FF000030393ED
:10452800019B5B680393039B23F01F0303939DF890
:104538000330039A13430393019B039A5A6004B010
:10454800704700BF82B003468DF807309DF80730EA
:10455800002B0CD04FF41053C4F201034FF4105247
:10456800C4F20102926842F400029A600BE04FF430
:104578001053C4F201034FF41052C4F201029268BE
:1045880022F400029A6002B0704700BF84B0019024
:104598000B468DF803304FF000038DF80F30019B68
:1045A8001A689DF803301340002B04D04FF0010324
:1045B8008DF80F3003E04FF000038DF80F309DF8B1
:1045C8000F30184604B0704782B001900B468DF842
:1045D80003309DF803306FEA0302019B1A6002B0B2
:1045E800704700BF86B001900B46ADF802304FF01F
:1045F80000038DF817304FF0000304934FF00003C9
:104608000393BDF802304FEA13239BB20493019B36
:104618005A68BDF80230DBB213400393019B1A6855
:10462800049B1340002B07D0039B002B04D04FF0B2
:1046380001038DF8173003E04FF000038DF81730B1
:104648009DF81730184606B0704700BF84B0019037
:104658000B46ADF802304FF000038DF80F30BDF86F
:1046680002304FEA13239BB28DF80F309DF80F30BC
:104678006FEA0302019B1A6004B070474FF480632D
:10468800C4F201034FF000021A604FF48063C4F2D1
:1046980001034FF000025A604FF48063C4F2010333
:1046A8004FF000029A604FF48063C4F201034FF0A8
:1046B8000002DA604FF48063C4F201034FF6FF7220
:1046C800C0F20F025A61704784B001904FF00003A6
:1046D80003934FF48063C4F201030393019B9B7916
:1046E800002B78D04FF48063C4F201034FF480624A
:1046F800C4F201021168019A12686FEA02020A40C4
:104708001A604FF48063C4F201034FF48062C4F26C
:1047180001025168019A12686FEA02020A405A605F
:10472800019B1B79039AD3180393039B039A11687F
:10473800019A12680A431A604FF48063C4F20103B5
:104748004FF48062C4F201029168019A12686FEA1C
:1047580002020A409A604FF48063C4F201034FF4E6
:104768008062C4F20102D168019A12686FEA0202FB
:104778000A40DA60019B5B79102B1AD14FF48063F1
:10478800C4F201034FF48062C4F201029168019AF5
:1047980012680A439A604FF48063C4F201034FF42D
:1047A8008062C4F20102D168019A12680A43DA6091
:1047B8001FE04FF48063C4F201030393019B5B790C
:1047C800039AD3180393039B039A1168019A1268FA
:1047D8000A431A600DE0019B1B79039AD3180393CF
:1047E800039B039A1168019A12686FEA02020A4051
:1047F8001A6004B0704700BF82B00190019B4FF06F
:1048080000021A60019B4FF000021A71019B4FF0E1
:104818000C025A71019B4FF000029A7102B0704766
:1048280082B001904FF48063C4F201034FF48062B8
:10483800C4F201021169019A0A431A6102B0704771
:1048480084B001904FF000038DF80F304FF480636F
:10485800C4F201035A69019B1340002B04D04FF0A6
:1048680001038DF80F3003E04FF000038DF80F308F
:104878009DF80F30184604B0704700BF82B0019011
:104888004FF48063C4F20103019A5A6102B0704781
:1048980084B001904FF000038DF80F304FF0000303
:1048A80002934FF48063C4F201031A68019B13401A
:1048B80002934FF48063C4F201035A69019B1340C9
:1048C800002B07D0029B002B04D04FF001038DF87A
:1048D8000F3003E04FF000038DF80F309DF80F30D4
:1048E800184604B0704700BF82B001904FF480634F
:1048F800C4F20103019A5A6102B0704700B583B04F
:104908000190019A4FF40063C4F201039A420CD15A
:104918004FF004004FF0010100F0F0FE4FF00400EA
:104928004FF0000100F0EAFE76E0019A4FF4406390
:10493800C4F201039A420CD14FF008004FF0010174
:1049480000F0DCFE4FF008004FF0000100F0D6FE4A
:1049580062E0019A4FF48053C4F201039A420CD1E9
:104968004FF010004FF0010100F0C8FE4FF01000AA
:104978004FF0000100F0C2FE4EE0019A4FF4A05340
:10498800C4F201039A420CD14FF020004FF001010C
:1049980000F0B4FE4FF020004FF0000100F0AEFE32
:1049A8003AE0019A4FF4C053C4F201039A420CD181
:1049B8004FF040004FF0010100F0A0FE4FF0400022
:1049C8004FF0000100F09AFE26E0019A4FF4E05300
:1049D800C4F201039A420CD14FF080004FF001015C
:1049E80000F08CFE4FF080004FF0000100F086FED2
:1049F80012E0019A4FF40053C4F201039A420BD11A
:104A08004FF480704FF0010100F078FE4FF4807091
:104A18004FF0000100F072FE03B000BD08B54FF082
:104A280001004FF0010100F069FE4FF001004FF066
:104A3800000100F063FE08BD88B0019000914FF0BE
:104A4800000307934FF0000304934FF0000306930D
:104A58004FF0000303934FF0000305934FF000035A
:104A68000293009BDB7803F00F030793009BDB782E
:104A780003F01003002B04D0009B9B78079A134384
:104A88000793009B1B88DBB2002B4ED0019B1B6851
:104A980005934FF00003069341E0069B4FF0010297
:104AA80002FA03F30393009B1B881A46039B1340E7
:104AB8000493049A039B9A422DD1069B4FEA8303E1
:104AC8000393039B4FF00F0202FA03F30293029B36
:104AD8006FEA0303059A13400593039B079A02FAAA
:104AE80003F3059A13430593009BDB78282B07D122
:104AF800069B4FF0010202FA03F2019B5A610AE099
:104B0800009BDB78482B06D1069B4FF0010202FA86
:104B180003F2019B1A61069B03F101030693069BAE
:104B2800072BBAD9019B059A1A60009B1B88FF2B9B
:104B380053D9019B5B6805934FF00003069346E049
:104B4800069B03F108034FF0010202FA03F30393F3
:104B5800009B1B881A46039B13400493049A039BEB
:104B68009A4230D1069B4FEA83030393039B4FF08D
:104B78000F0202FA03F30293029B6FEA0303059AFA
:104B880013400593039B079A02FA03F3059A13430C
:104B98000593009BDB78282B08D1069B03F10803BB
:104BA8004FF0010202FA03F2019B5A61009BDB7885
:104BB800482B08D1069B03F108034FF0010202FAC3
:104BC80003F2019B1A61069B03F101030693069BFE
:104BD800072BB5D9019B059A5A6008B0704700BFEA
:104BE80082B00190019B4FF6FF721A80019B4FF033
:104BF80002029A70019B4FF00402DA7002B070470B
:104C080084B001900B46ADF802304FF000038DF8E8
:104C18000F30019B9A68BDF802301340002B04D076
:104C28004FF001038DF80F3003E04FF000038DF8CB
:104C38000F309DF80F30184604B0704782B00190CD
:104C4800019B9B689BB2184602B0704784B00190E4
:104C58000B46ADF802304FF000038DF80F30019B82
:104C6800DA68BDF802301340002B04D04FF001037E
:104C78008DF80F3003E04FF000038DF80F309DF8EA
:104C88000F30184604B0704782B00190019BDB6872
:104C98009BB2184602B0704782B001900B46ADF83F
:104CA8000230BDF80220019B1A6102B0704700BFB4
:104CB80082B001900B46ADF80230BDF80220019B8E
:104CC8005A6102B0704700BF82B0019013460A468D
:104CD800ADF802208DF801309DF80130002B04D08A
:104CE800BDF80220019B1A6103E0BDF80220019B78
:104CF8005A6102B0704700BF82B001900B46ADF810
:104D08000230BDF80220019BDA6002B0704700BF94
:104D180082B001900B46ADF80230019BDA68BDF80D
:104D280002305A40019BDA6002B0704784B00190AB
:104D38000B46ADF802304FF480330393BDF80230D0
:104D4800039A13430393019B039A9A61BDF80220C7
:104D5800019B9A61019B039A9A61019B9B6903934A
:104D6800019B9B69039304B0704700BF84B002465F
:104D78000B468DF807208DF806304FF0000303939B
:104D88004FF00003C4F201031B680393039A4FF624
:104D98008073134003939DF807304FEA0313039A77
:104DA800134303939DF80630039A134303934FF07C
:104DB8000003C4F20103039A1A6004B0704700BFED
:104DC80082B003468DF807304FF01C03C4F220234D
:104DD8009DF807201A6002B0704700BF86B00190A6
:104DE8000B468DF803304FF0000304934FF0000397
:104DF80003934FF0000305934FF000030293019BC8
:104E0800002B06DA4FF00003C4F20103DB690593B7
:104E180005E04FF00003C4F201035B680593019BB2
:104E280003F470234FEA13430293019B4FEA0343B1
:104E38004FEA13430493019B03F44013B3F5401F57
:104E480010D1059B23F0706305934FF00003C4F263
:104E580001034FF00002C4F20102526822F07062AE
:104E68005A6026E0019B03F48013002B10D0029BAC
:104E78004FF0030202FA03F30393039B6FEA030361
:104E8800059A13400593059B43F07063059310E062
:104E9800019B4FEA53534FEA0313049A02FA03F3B0
:104EA8006FEA0303059A13400593059B43F070636B
:104EB80005939DF80330002B0AD0019B4FEA53530A
:104EC8004FEA0313049A02FA03F3059A134305936E
:104ED800019B002B06DA4FF00003C4F20103059A88
:104EE800DA6105E04FF00003C4F20103059A5A6045
:104EF80006B0704710B485B002460B468DF80720FF
:104F08008DF806304FF0000303939DF8063003F048
:104F180003034FEA83034FF00F0202FA03F30393EC
:104F28004FF00003C4F201039DF806204FEA9202F5
:104F3800D2B210464FF00002C4F201029DF80610EA
:104F48004FEA9101C9B201F1020152F82110039A06
:104F58006FEA0202114000F1020243F822104FF0FA
:104F68000003C4F201039DF806204FEA9202D2B270
:104F780010464FF00002C4F201029DF806104FEAF5
:104F88009101C9B201F1020152F821109DF80740C0
:104F98009DF8062002F003024FEA820204FA02F2A8
:104FA800114300F1020243F8221005B010BC70470B
:104FB80082B001904FF0DC03C4F22023019A1A60FA
:104FC80002B070474FF48053C4F202034FF480528A
:104FD800C4F20202126842F001021A604FF48052D1
:104FE800C4F202024FF48053C4F2020359684FF02E
:104FF8000003CFF6FF030B4053604FF48053C4F215
:1050080002034FF48052C4F20202126822F0847242
:1050180022F480321A604FF48053C4F202034FF432
:105028008052C4F20202126822F480221A604FF4FD
:105038008053C4F202034FF48052C4F20202526851
:1050480022F4FE025A604FF48053C4F202034FF474
:105058001F029A60704700BF82B001904FF48053DE
:10506800C4F202034FF48052C4F20202126822F41E
:1050780080321A604FF48053C4F202034FF4805216
:10508800C4F20202126822F480221A60019BB3F56E
:10509800803F03D0B3F5802F0DD019E04FF4805333
:1050A800C4F202034FF48052C4F20202126842F4BE
:1050B80080321A600DE04FF48053C4F202034FF4BB
:1050C8008052C4F20202126842F4A0221A6000E080
:1050D80000BF02B0704700BF00B583B04FF00003B7
:1050E80000934FF000038DF807304FF000038DF860
:1050F80006304FF0310000F077FB03468DF806309C
:10510800009B03F101030093009BB3F5A06F03D04C
:105118009DF80630002BECD04FF0310000F064FB16
:105128000346002B04D04FF001038DF8073003E04D
:105138004FF000038DF807309DF80730184603B08C
:1051480000BD00BF84B003468DF807304FF0000360
:1051580003934FF48053C4F202031B680393039B29
:1051680023F0F80303939DF807304FEAC303039A2B
:10517800134303934FF48053C4F20203039A1A6053
:1051880004B0704782B003468DF807304FF0000333
:10519800C4F242239DF807201A6002B0704700BF8E
:1051A80084B0019000914FF0000303934FF48053B3
:1051B800C4F202035B680393039B23F47C130393F9
:1051C800019A009B1343039A134303934FF48053AC
:1051D800C4F20203039A5A6004B0704782B00346CF
:1051E8008DF807304FF06003C4F242239DF8072082
:1051F8001A6002B0704700BF84B001904FF00003FE
:1052080003934FF48053C4F202035B680393039B38
:1052180023F003030393039A019B134303934FF46F
:105228008053C4F20203039A5A6004B0704700BF67
:105238004FF48053C4F202035B68DBB203F00C0343
:10524800DBB21846704700BF84B001904FF00003EE
:1052580003934FF48053C4F202035B680393039BE8
:1052680023F0F0030393039A019B134303934FF432
:105278008053C4F20203039A5A6004B0704700BF17
:1052880084B001904FF0000303934FF48053C4F2AD
:1052980002035B680393039B23F4E0630393039A7D
:1052A800019B134303934FF48053C4F20203039A00
:1052B8005A6004B0704700BF84B001904FF00003FB
:1052C80003934FF48053C4F202035B680393039B78
:1052D80023F460530393019B4FEAC303039A1343D8
:1052E80003934FF48053C4F20203039A5A6004B044
:1052F800704700BF82B002460B468DF807208DF834
:1053080006309DF80630002B0FD041F20903C4F295
:10531800020341F20902C4F202021278D1B29DF8E6
:1053280007200A43D2B21A7011E041F20903C4F20D
:10533800020341F20902C4F202021278D1B29DF8C6
:1053480007206FEA0202D2B20A40D2B21A7002B043
:10535800704700BF82B001904FF0D803C4F24223D7
:10536800019A1A6002B0704784B001904FF00003B0
:1053780003934FF48053C4F202035B680393039BC7
:1053880023F440430393039A019B134303934FF47D
:105398008053C4F20203039A5A6004B0704700BFF6
:1053A80082B003468DF807304FF48153C4F20203EC
:1053B8004FF000021A704FF48153C4F202034FF009
:1053C80000021A709DF80730012B02D0042B08D078
:1053D8000FE04FF48153C4F202034FF001021A7038
:1053E80008E04FF48153C4F202034FF005021A702B
:1053F80000E000BF02B0704782B003468DF8073066
:105408004FF49063C4F242239DF807201A6002B05B
:10541800704700BF82B001904FF48053C4F202037A
:105428004FF48052C4F20202116A019A0A431A62C6
:1054380002B0704782B003468DF8073040F23C4313
:10544800C4F242239DF807201A6002B0704700BFDB
:1054580086B001904FF0000305934FF000030493CA
:105468004FF0000303934FF0000302934FF480536F
:10547800C4F202035B6803F00C030593059B042B3D
:105488000AD0082B0FD0002B4DD1019A4FF490531E
:10549800C0F27A0313604DE0019A4FF49053C0F2C2
:1054A8007A03136046E04FF48053C4F202035B684A
:1054B80003F4701304934FF48053C4F202035B683F
:1054C80003F480330393049B4FEA934303F10203ED
:1054D8000493039B002B09D1049A4FF41063C0F284
:1054E8003D0303FB02F2019B1A6023E04FF4805353
:1054F800C4F202035B6803F40033002B09D0049A5A
:105508004FF41063C0F23D0303FB02F2019B1A60E3
:1055180010E0049A4FF49053C0F27A0303FB02F2AE
:10552800019B1A6006E0019A4FF49053C0F27A0387
:10553800136000BF4FF48053C4F202035B6803F0AA
:10554800F0030593059B4FEA1313059340F290135C
:10555800C2F20003059A9B181B78DBB20293019BE9
:105568001A68029B22FA03F2019B5A604FF4805397
:10557800C4F202035B6803F4E0630593059B4FEAFA
:105588001323059340F29013C2F20003059A9B1867
:105598001B78DBB20293019B5A68029B22FA03F242
:1055A800019B9A604FF48053C4F202035B6803F4D2
:1055B80060530593059B4FEAD323059340F290135C
:1055C800C2F20003059A9B181B78DBB20293019B79
:1055D8005A68029B22FA03F2019BDA604FF4805367
:1055E800C4F202035B6803F440430593059B4FEA4A
:1055F8009333059340F2A013C2F20003059A9B1857
:105608001B78DBB20293019BDA68029BB2FBF3F2D0
:10561800019B1A6106B0704782B001900B468DF865
:1056280003309DF80330002B0CD04FF48053C4F2A4
:1056380002034FF48052C4F202025169019A0A43EC
:105648005A610DE04FF48053C4F202034FF48052C4
:10565800C4F202025169019A6FEA02020A405A61D1
:1056680002B0704782B001900B468DF803309DF868
:105678000330002B0CD04FF48053C4F202034FF4D4
:105688008052C4F202029169019A0A439A610DE0BC
:105698004FF48053C4F202034FF48052C4F2020262
:1056A8009169019A6FEA02020A409A6102B0704752
:1056B80082B001900B468DF803309DF80330002B23
:1056C8000CD04FF48053C4F202034FF48052C4F25A
:1056D8000202D169019A0A43DA610DE04FF480535E
:1056E800C4F202034FF48052C4F20202D169019A53
:1056F8006FEA02020A40DA6102B0704782B0019094
:105708000B468DF803309DF80330002B0CD04FF476
:105718008053C4F202034FF48052C4F20202D168EB
:10572800019A0A43DA600DE04FF48053C4F2020391
:105738004FF48052C4F20202D168019A6FEA020261
:105748000A40DA6002B0704782B001900B468DF8CB
:1057580003309DF80330002B0CD04FF48053C4F273
:1057680002034FF48052C4F202021169019A0A43FB
:105778001A610DE04FF48053C4F202034FF48052D3
:10578800C4F202021169019A6FEA02020A401A6120
:1057980002B0704782B003468DF807304FF4886333
:1057A800C4F242239DF807201A6002B0704700BF78
:1057B80082B003468DF807304FF04C03C4F2422301
:1057C8009DF807201A6002B0704700BF82B00346F8
:1057D8008DF8073041F20703C4F202039DF8072051
:1057E8001A7002B0704700BF86B003468DF80730C4
:1057F8004FF0000303934FF0000305934FF00003AD
:105808008DF813309DF807304FEA5313DBB203933A
:10581800039B012B06D14FF48053C4F202031B688B
:1058280005930FE0039B022B06D14FF48053C4F27B
:1058380002031B6A059305E04FF48053C4F2020388
:105848005B6A05939DF8073003F01F030393039BDE
:10585800059A22FA03F303F00103002B04D04FF05A
:1058680001038DF8133003E04FF000038DF8133077
:105878009DF81330184606B0704700BF4FF48053A8
:10588800C4F202034FF48052C4F20202526A42F098
:1058980080725A62704700BF84B003468DF80730A3
:1058A8004FF000038DF80F304FF48053C4F2020319
:1058B8009A689DF807301340002B04D04FF001037D
:1058C8008DF80F3003E04FF000038DF80F309DF88E
:1058D8000F30184604B0704782B003468DF8073081
:1058E80041F20A03C4F202039DF807201A7002B0BD
:1058F800704700BF00B583B00190019A4FF4305350
:10590800C4F201039A420CD14FF400604FF0010138
:10591800FFF7F4FE4FF400604FF00001FFF7EEFED2
:105928003BE1019BB3F1804F0CD14FF001004FF0E8
:105938000101FFF709FF4FF001004FF00001FFF7E9
:1059480003FF2AE1019A4FF48063C4F200039A42EC
:105958000CD14FF002004FF00101FFF7F5FE4FF0B8
:1059680002004FF00001FFF7EFFE16E1019A4FF435
:105978000063C4F200039A420CD14FF004004FF0C8
:105988000101FFF7E1FE4FF004004FF00001FFF7BF
:10599800DBFE02E1019A4FF44063C4F200039A422D
:1059A8000CD14FF008004FF00101FFF7CDFE4FF08A
:1059B80008004FF00001FFF7C7FEEEE0019A4FF430
:1059C8008053C4F200039A420CD14FF010004FF0FC
:1059D8000101FFF7B9FE4FF010004FF00001FFF78B
:1059E800B3FEDAE0019A4FF4A053C4F200039A42DE
:1059F8000CD14FF020004FF00101FFF7A5FE4FF04A
:105A080020004FF00001FFF79FFEC6E0019A4FF417
:105A18005053C4F201039A420CD14FF400504FF096
:105A28000101FFF76BFE4FF400504FF00001FFF744
:105A380065FEB2E0019A4FF49843C4F201039A421A
:105A48000CD14FF400204FF00101FFF757FE4FF43F
:105A580000204FF00001FFF751FE9EE0019A4FF43D
:105A6800A043C4F201039A420CD14FF480104FF0C6
:105A78000101FFF743FE4FF480104FF00001FFF7DC
:105A88003DFE8AE0019A4FF4A843C4F201039A420A
:105A98000CD14FF400104FF00101FFF72FFE4FF427
:105AA80000104FF00001FFF729FE76E0019A4FF44D
:105AB800C053C4F200039A420CD14FF040004FF09B
:105AC8000101FFF741FE4FF040004FF00001FFF7E2
